{
  "contractName": "EthIpfsPoe",
  "abi": [
    {
      "inputs": [],
      "payable": false,
      "stateMutability": "nonpayable",
      "type": "constructor",
      "signature": "constructor"
    },
    {
      "anonymous": false,
      "inputs": [
        {
          "indexed": false,
          "name": "_ipfsHash",
          "type": "string"
        },
        {
          "indexed": false,
          "name": "_address",
          "type": "address"
        }
      ],
      "name": "ipfsSent",
      "type": "event",
      "signature": "0xd3896131bca4353bcda578f36768163e2ca77cefb2988be6c4e81939ca298ac0"
    },
    {
      "anonymous": false,
      "inputs": [
        {
          "indexed": false,
          "name": "response",
          "type": "string"
        }
      ],
      "name": "inboxResponse",
      "type": "event",
      "signature": "0x2974ec83b4de9f76155d0c3e88bd3c0645c56c1795807f37d3f9e95caafeee57"
    },
    {
      "constant": false,
      "inputs": [
        {
          "name": "file",
          "type": "string"
        }
      ],
      "name": "notarize",
      "outputs": [],
      "payable": false,
      "stateMutability": "nonpayable",
      "type": "function",
      "signature": "0x7183616c"
    },
    {
      "constant": true,
      "inputs": [
        {
          "name": "file",
          "type": "string"
        }
      ],
      "name": "proofFor",
      "outputs": [
        {
          "name": "",
          "type": "bytes32"
        }
      ],
      "payable": false,
      "stateMutability": "pure",
      "type": "function",
      "signature": "0xf6c1acdf"
    },
    {
      "constant": true,
      "inputs": [
        {
          "name": "file",
          "type": "string"
        }
      ],
      "name": "checkfile",
      "outputs": [
        {
          "name": "",
          "type": "bool"
        }
      ],
      "payable": false,
      "stateMutability": "view",
      "type": "function",
      "signature": "0x2376a90f"
    },
    {
      "constant": false,
      "inputs": [
        {
          "name": "_address",
          "type": "address"
        },
        {
          "name": "_ipfsHash",
          "type": "string"
        }
      ],
      "name": "sendIPFS",
      "outputs": [],
      "payable": false,
      "stateMutability": "nonpayable",
      "type": "function",
      "signature": "0x6bfc70e2"
    },
    {
      "constant": false,
      "inputs": [],
      "name": "checkInbox",
      "outputs": [],
      "payable": false,
      "stateMutability": "nonpayable",
      "type": "function",
      "signature": "0x5c23d56f"
    }
  ],
  "bytecode": "0x608060405234801561001057600080fd5b50610adc806100206000396000f3fe60806040526004361061006d576000357c0100000000000000000000000000000000000000000000000000000000900463ffffffff1680632376a90f146100725780635c23d56f146101525780636bfc70e2146101695780637183616c14610251578063f6c1acdf146102d7575b600080fd5b34801561007e57600080fd5b506101386004803603602081101561009557600080fd5b81019080803590602001906401000000008111156100b257600080fd5b8201836020820111156100c457600080fd5b803590602001918460018302840111640100000000831117156100e657600080fd5b91908080601f016020809104026020016040519081016040528093929190818152602001838380828437600081840152601f19601f8201169050808301925050505050505091929192905050506103b3565b604051808215151515815260200191505060405180910390f35b34801561015e57600080fd5b506101676103d2565b005b34801561017557600080fd5b5061024f6004803603604081101561018c57600080fd5b81019080803573ffffffffffffffffffffffffffffffffffffffff169060200190929190803590602001906401000000008111156101c957600080fd5b8201836020820111156101db57600080fd5b803590602001918460018302840111640100000000831117156101fd57600080fd5b91908080601f016020809104026020016040519081016040528093929190818152602001838380828437600081840152601f19601f820116905080830192505050505050509192919290505050610629565b005b34801561025d57600080fd5b506102d56004803603602081101561027457600080fd5b810190808035906020019064010000000081111561029157600080fd5b8201836020820111156102a357600080fd5b803590602001918460018302840111640100000000831117156102c557600080fd5b9091929391929390505050610840565b005b3480156102e357600080fd5b5061039d600480360360208110156102fa57600080fd5b810190808035906020019064010000000081111561031757600080fd5b82018360208201111561032957600080fd5b8035906020019184600183028401116401000000008311171561034b57600080fd5b91908080601f016020809104026020016040519081016040528093929190818152602001838380828437600081840152601f19601f82011690508083019250505050505050919291929050505061089f565b6040518082815260200191505060405180910390f35b6000806103bf8361089f565b90506103ca816109b4565b915050919050565b6060600160003373ffffffffffffffffffffffffffffffffffffffff1673ffffffffffffffffffffffffffffffffffffffff1681526020019081526020016000208054600181600116156101000203166002900480601f0160208091040260200160405190810160405280929190818152602001828054600181600116156101000203166002900480156104a75780601f1061047c576101008083540402835291602001916104a7565b820191906000526020600020905b81548152906001019060200180831161048a57829003601f168201915b50505050509050600081511415610525577f2974ec83b4de9f76155d0c3e88bd3c0645c56c1795807f37d3f9e95caafeee5760405180806020018281038252600b8152602001807f456d70747920496e626f7800000000000000000000000000000000000000000081525060200191505060405180910390a1610626565b6020604051908101604052806000815250600160003373ffffffffffffffffffffffffffffffffffffffff1673ffffffffffffffffffffffffffffffffffffffff1681526020019081526020016000209080519060200190610588929190610a0b565b507f2974ec83b4de9f76155d0c3e88bd3c0645c56c1795807f37d3f9e95caafeee57816040518080602001828103825283818151815260200191508051906020019080838360005b838110156105eb5780820151818401526020810190506105d0565b50505050905090810190601f1680156106185780820380516001836020036101000a031916815260200191505b509250505060405180910390a15b50565b600160008373ffffffffffffffffffffffffffffffffffffffff1673ffffffffffffffffffffffffffffffffffffffff1681526020019081526020016000208054600181600116156101000203166002900480601f0160208091040260200160405190810160405280929190818152602001828054600181600116156101000203166002900480156106fc5780601f106106d1576101008083540402835291602001916106fc565b820191906000526020600020905b8154815290600101906020018083116106df57829003601f168201915b505050505060608190506000815114151561071657600080fd5b82600160008673ffffffffffffffffffffffffffffffffffffffff1673ffffffffffffffffffffffffffffffffffffffff1681526020019081526020016000209080519060200190610769929190610a0b565b507fd3896131bca4353bcda578f36768163e2ca77cefb2988be6c4e81939ca298ac0838560405180806020018373ffffffffffffffffffffffffffffffffffffffff1673ffffffffffffffffffffffffffffffffffffffff168152602001828103825284818151815260200191508051906020019080838360005b838110156107ff5780820151818401526020810190506107e4565b50505050905090810190601f16801561082c5780820380516001836020036101000a031916815260200191505b50935050505060405180910390a150505050565b600061088f83838080601f016020809104026020016040519081016040528093929190818152602001838380828437600081840152601f19601f8201169050808301925050505050505061089f565b905061089a816109dd565b505050565b60006002826040516020018082805190602001908083835b6020831015156108dc57805182526020820191506020810190506020830392506108b7565b6001836020036101000a0380198251168184511680821785525050505050509050019150506040516020818303038152906040526040518082805190602001908083835b6020831015156109455780518252602082019150602081019050602083039250610920565b6001836020036101000a038019825116818451168082178552505050505050905001915050602060405180830381855afa158015610987573d6000803e3d6000fd5b5050506040513d602081101561099c57600080fd5b81019080805190602001909291905050509050919050565b600080600083815260200190815260200160002060009054906101000a900460ff169050919050565b600160008083815260200190815260200160002060006101000a81548160ff02191690831515021790555050565b828054600181600116156101000203166002900490600052602060002090601f016020900481019282601f10610a4c57805160ff1916838001178555610a7a565b82800160010185558215610a7a579182015b82811115610a79578251825591602001919060010190610a5e565b5b509050610a879190610a8b565b5090565b610aad91905b80821115610aa9576000816000905550600101610a91565b5090565b9056fea165627a7a72305820b8604a4db97c5795332206d6e4ceda253f36ff0981558ff989a4809ca76b7ff30029",
  "source": "pragma solidity ^0.5.0;\n\ncontract EthIpfsPoe {\n\n  // Maps - proofs need wiring up\n  mapping (bytes32 => bool) private proofs;\n  mapping (address => string) ipfsInbox;\n\n  // Events\n  event ipfsSent(string _ipfsHash, address _address);\n  event inboxResponse(string response);\n\n  // Modifier: checks if inbox is full or not\n  modifier notFull (string memory _string) {\n  bytes\n  memory\n  stringTest = bytes(_string);\n  require (stringTest.length == 0); _\n  ;}\n\n  // An empty constructor that creates an instance of the contract\n  constructor() public {}\n\n  // store a proof of existence in the contract state - wire up into React state\n  function storeProof(bytes32 proof) internal {\n    proofs[proof] = true;\n  }\n\n  // calculate and store the proof for a file - wire up into React state\n  function notarize(string calldata file) external {\n    bytes32 proof = proofFor(file);\n    storeProof(proof);\n  }\n\n  // helper function to get a document's sha256\n  function proofFor(string memory file) pure public returns (bytes32) {\n    return sha256(abi.encodePacked(file));\n  }\n\n  // check if a file has been notarized - wire up in React????\n  function checkfile(string memory file) public view returns (bool) {\n    bytes32 proof = proofFor(file);\n    return hasProof(proof);\n  }\n\n  // A function that takes in the receiver's address and the\n  // IPFS address. Places the IPFS address in the receiver's\n  // inbox.\n  function sendIPFS(address _address, string memory _ipfsHash)\n      notFull(ipfsInbox[_address])\n      public\n  {\n     ipfsInbox[_address] = _ipfsHash;\n     emit ipfsSent(_ipfsHash, _address);\n  }\n\n  // returns true if proof is stored - needs wiring up in React\n  function hasProof(bytes32 proof) internal view returns(bool) {\n    return proofs[proof];\n  }\n\n  // A function that checks your inbox and empties it afterwards.\n  // Returns an address if there is one, or \"Empty Inbox\"\n  function checkInbox()\n      public\n  {\n      string memory ipfs_hash = ipfsInbox[msg.sender];\n      if(bytes(ipfs_hash).length == 0) {\n          emit inboxResponse(\"Empty Inbox\");\n      } else {\n          ipfsInbox[msg.sender] = \"\";\n          emit inboxResponse(ipfs_hash);\n      }\n  }\n\n}\n",
  "sourcePath": "/home/shevek/Documents/blockchain/eth-ipfs-poe/contracts/EthIpfsPoe.sol",
  "compiler": {
    "name": "solc",
    "version": "0.5.0+commit.1d4f565a.Emscripten.clang"
  },
  "schemaVersion": "3.0.1",
  "updatedAt": "2019-01-16T23:04:07.073Z",
  "devdoc": {
    "methods": {}
  },
  "userdoc": {
    "methods": {}
  }
}